:020000040000FA
:1000000001280313831206108316061083120614A8
:100010000313903098008316243098000615990138
:100020008312831600309F008312831207309F00D3
:10003000FA30B000D0009F30B100D100A6013030BE
:10004000A000A1015330A2002B30A700851C24285A
:10005000A70B2628061085182B280614A501FF30AB
:10006000A3000000000000000000000000000000ED
:1000700000000730A4002208840003108518031430
:100080000610800D000CA30D23083F3903198C289E
:100090003F3A03196A28922006140000000000006D
:1000A0000000A40B3B2800002208840003108518E0
:1000B00003140610800D000CA30D23083F3903190B
:1000C0008C283F3A03196A289220A20AA50A06142E
:1000D0000000392822088400A40803197328031497
:1000E000800DA40B6F282508043EA100E039031DF4
:1000F0000128A60803198428A6012108B20030307F
:10010000A0005330A2002A28A60A2108D2005030AD
:10011000A0003330A2002A283330A6080319533038
:10012000A20001280C1E9F2821080319A228A10063
:10013000A1032008840000089900A00A080000001C
:1001400000000000000000000000000000000000AF
:020150000800A5
:040152000034003441
:02400E00023F6F
:00000001FF
